{
  "contractName": "ScratchCollective",
  "abi": [
    {
      "inputs": [],
      "stateMutability": "nonpayable",
      "type": "constructor"
    },
    {
      "anonymous": false,
      "inputs": [
        {
          "indexed": true,
          "internalType": "address",
          "name": "account",
          "type": "address"
        },
        {
          "indexed": true,
          "internalType": "address",
          "name": "operator",
          "type": "address"
        },
        {
          "indexed": false,
          "internalType": "bool",
          "name": "approved",
          "type": "bool"
        }
      ],
      "name": "ApprovalForAll",
      "type": "event"
    },
    {
      "anonymous": false,
      "inputs": [
        {
          "indexed": true,
          "internalType": "address",
          "name": "previousOwner",
          "type": "address"
        },
        {
          "indexed": true,
          "internalType": "address",
          "name": "newOwner",
          "type": "address"
        }
      ],
      "name": "OwnershipTransferred",
      "type": "event"
    },
    {
      "anonymous": false,
      "inputs": [
        {
          "indexed": true,
          "internalType": "address",
          "name": "operator",
          "type": "address"
        },
        {
          "indexed": true,
          "internalType": "address",
          "name": "from",
          "type": "address"
        },
        {
          "indexed": true,
          "internalType": "address",
          "name": "to",
          "type": "address"
        },
        {
          "indexed": false,
          "internalType": "uint256[]",
          "name": "ids",
          "type": "uint256[]"
        },
        {
          "indexed": false,
          "internalType": "uint256[]",
          "name": "values",
          "type": "uint256[]"
        }
      ],
      "name": "TransferBatch",
      "type": "event"
    },
    {
      "anonymous": false,
      "inputs": [
        {
          "indexed": true,
          "internalType": "address",
          "name": "operator",
          "type": "address"
        },
        {
          "indexed": true,
          "internalType": "address",
          "name": "from",
          "type": "address"
        },
        {
          "indexed": true,
          "internalType": "address",
          "name": "to",
          "type": "address"
        },
        {
          "indexed": false,
          "internalType": "uint256",
          "name": "id",
          "type": "uint256"
        },
        {
          "indexed": false,
          "internalType": "uint256",
          "name": "value",
          "type": "uint256"
        }
      ],
      "name": "TransferSingle",
      "type": "event"
    },
    {
      "anonymous": false,
      "inputs": [
        {
          "indexed": false,
          "internalType": "string",
          "name": "value",
          "type": "string"
        },
        {
          "indexed": true,
          "internalType": "uint256",
          "name": "id",
          "type": "uint256"
        }
      ],
      "name": "URI",
      "type": "event"
    },
    {
      "inputs": [],
      "name": "ICHIBAN",
      "outputs": [
        {
          "internalType": "uint256",
          "name": "",
          "type": "uint256"
        }
      ],
      "stateMutability": "view",
      "type": "function"
    },
    {
      "inputs": [],
      "name": "artSupply",
      "outputs": [
        {
          "internalType": "uint256",
          "name": "",
          "type": "uint256"
        }
      ],
      "stateMutability": "view",
      "type": "function"
    },
    {
      "inputs": [
        {
          "internalType": "address",
          "name": "account",
          "type": "address"
        },
        {
          "internalType": "uint256",
          "name": "id",
          "type": "uint256"
        }
      ],
      "name": "balanceOf",
      "outputs": [
        {
          "internalType": "uint256",
          "name": "",
          "type": "uint256"
        }
      ],
      "stateMutability": "view",
      "type": "function"
    },
    {
      "inputs": [
        {
          "internalType": "address[]",
          "name": "accounts",
          "type": "address[]"
        },
        {
          "internalType": "uint256[]",
          "name": "ids",
          "type": "uint256[]"
        }
      ],
      "name": "balanceOfBatch",
      "outputs": [
        {
          "internalType": "uint256[]",
          "name": "",
          "type": "uint256[]"
        }
      ],
      "stateMutability": "view",
      "type": "function"
    },
    {
      "inputs": [
        {
          "internalType": "uint256",
          "name": "",
          "type": "uint256"
        }
      ],
      "name": "ipfs_meta",
      "outputs": [
        {
          "internalType": "string",
          "name": "",
          "type": "string"
        }
      ],
      "stateMutability": "view",
      "type": "function"
    },
    {
      "inputs": [
        {
          "internalType": "address",
          "name": "account",
          "type": "address"
        },
        {
          "internalType": "address",
          "name": "operator",
          "type": "address"
        }
      ],
      "name": "isApprovedForAll",
      "outputs": [
        {
          "internalType": "bool",
          "name": "",
          "type": "bool"
        }
      ],
      "stateMutability": "view",
      "type": "function"
    },
    {
      "inputs": [
        {
          "internalType": "uint256",
          "name": "",
          "type": "uint256"
        }
      ],
      "name": "original_creator",
      "outputs": [
        {
          "internalType": "address",
          "name": "",
          "type": "address"
        }
      ],
      "stateMutability": "view",
      "type": "function"
    },
    {
      "inputs": [],
      "name": "owner",
      "outputs": [
        {
          "internalType": "address",
          "name": "",
          "type": "address"
        }
      ],
      "stateMutability": "view",
      "type": "function"
    },
    {
      "inputs": [],
      "name": "renounceOwnership",
      "outputs": [],
      "stateMutability": "nonpayable",
      "type": "function"
    },
    {
      "inputs": [
        {
          "internalType": "address",
          "name": "from",
          "type": "address"
        },
        {
          "internalType": "address",
          "name": "to",
          "type": "address"
        },
        {
          "internalType": "uint256[]",
          "name": "ids",
          "type": "uint256[]"
        },
        {
          "internalType": "uint256[]",
          "name": "amounts",
          "type": "uint256[]"
        },
        {
          "internalType": "bytes",
          "name": "data",
          "type": "bytes"
        }
      ],
      "name": "safeBatchTransferFrom",
      "outputs": [],
      "stateMutability": "nonpayable",
      "type": "function"
    },
    {
      "inputs": [
        {
          "internalType": "address",
          "name": "operator",
          "type": "address"
        },
        {
          "internalType": "bool",
          "name": "approved",
          "type": "bool"
        }
      ],
      "name": "setApprovalForAll",
      "outputs": [],
      "stateMutability": "nonpayable",
      "type": "function"
    },
    {
      "inputs": [
        {
          "internalType": "bytes4",
          "name": "interfaceId",
          "type": "bytes4"
        }
      ],
      "name": "supportsInterface",
      "outputs": [
        {
          "internalType": "bool",
          "name": "",
          "type": "bool"
        }
      ],
      "stateMutability": "view",
      "type": "function"
    },
    {
      "inputs": [
        {
          "internalType": "address",
          "name": "newOwner",
          "type": "address"
        }
      ],
      "name": "transferOwnership",
      "outputs": [],
      "stateMutability": "nonpayable",
      "type": "function"
    },
    {
      "inputs": [
        {
          "internalType": "string",
          "name": "_cid",
          "type": "string"
        }
      ],
      "name": "addNewArt",
      "outputs": [],
      "stateMutability": "nonpayable",
      "type": "function"
    },
    {
      "inputs": [
        {
          "internalType": "uint256",
          "name": "_id",
          "type": "uint256"
        }
      ],
      "name": "uri",
      "outputs": [
        {
          "internalType": "string",
          "name": "",
          "type": "string"
        }
      ],
      "stateMutability": "view",
      "type": "function"
    },
    {
      "inputs": [
        {
          "internalType": "string",
          "name": "_newUri",
          "type": "string"
        }
      ],
      "name": "updateBaseURI",
      "outputs": [],
      "stateMutability": "nonpayable",
      "type": "function"
    },
    {
      "inputs": [
        {
          "internalType": "address",
          "name": "from",
          "type": "address"
        },
        {
          "internalType": "address",
          "name": "to",
          "type": "address"
        },
        {
          "internalType": "uint256",
          "name": "id",
          "type": "uint256"
        },
        {
          "internalType": "uint256",
          "name": "amount",
          "type": "uint256"
        },
        {
          "internalType": "bytes",
          "name": "data",
          "type": "bytes"
        }
      ],
      "name": "safeTransferFrom",
      "outputs": [],
      "stateMutability": "nonpayable",
      "type": "function"
    }
  ],
  "bytecode": "0x608060405260006005553480156200001657600080fd5b506040518060400160405280601581526020017f68747470733a2f2f697066732e696f2f697066732f00000000000000000000008152506200005e816200008560201b60201c565b506200007f62000073620000a160201b60201c565b620000a960201b60201c565b62000284565b80600290805190602001906200009d9291906200016f565b5050565b600033905090565b6000600360009054906101000a900473ffffffffffffffffffffffffffffffffffffffff16905081600360006101000a81548173ffffffffffffffffffffffffffffffffffffffff021916908373ffffffffffffffffffffffffffffffffffffffff1602179055508173ffffffffffffffffffffffffffffffffffffffff168173ffffffffffffffffffffffffffffffffffffffff167f8be0079c531659141344cd1fd0a4f28419497f9722a3daafe3b4186f6b6457e060405160405180910390a35050565b8280546200017d906200021f565b90600052602060002090601f016020900481019282620001a15760008555620001ed565b82601f10620001bc57805160ff1916838001178555620001ed565b82800160010185558215620001ed579182015b82811115620001ec578251825591602001919060010190620001cf565b5b509050620001fc919062000200565b5090565b5b808211156200021b57600081600090555060010162000201565b5090565b600060028204905060018216806200023857607f821691505b602082108114156200024f576200024e62000255565b5b50919050565b7f4e487b7100000000000000000000000000000000000000000000000000000000600052602260045260246000fd5b6133c080620002946000396000f3fe608060405234801561001057600080fd5b506004361061010a5760003560e01c8063715018a6116100a25780639f95cdc2116100715780639f95cdc2146102c9578063a22cb465146102e7578063e985e9c514610303578063f242432a14610333578063f2fde38b1461034f5761010a565b8063715018a6146102555780638146efdc1461025f5780638da5cb5b1461028f578063931688cb146102ad5761010a565b80632f3962e8116100de5780632f3962e8146101bb5780633a68edec146101eb5780634e1273f41461020957806369e7fdfd146102395761010a565b8062fdd58e1461010f57806301ffc9a71461013f5780630e89341c1461016f5780632eb2c2d61461019f575b600080fd5b6101296004803603810190610124919061214e565b61036b565b60405161013691906129eb565b60405180910390f35b61015960048036038101906101549190612206565b610434565b60405161016691906127ee565b60405180910390f35b610189600480360381019061018491906122a9565b610516565b6040516101969190612809565b60405180910390f35b6101b960048036038101906101b49190611fa8565b61060d565b005b6101d560048036038101906101d091906122a9565b6106ae565b6040516101e29190612809565b60405180910390f35b6101f361074e565b60405161020091906129eb565b60405180910390f35b610223600480360381019061021e919061218e565b610754565b6040516102309190612795565b60405180910390f35b610253600480360381019061024e9190612260565b61086d565b005b61025d610955565b005b610279600480360381019061027491906122a9565b6109dd565b60405161028691906126b8565b60405180910390f35b610297610a10565b6040516102a491906126b8565b60405180910390f35b6102c760048036038101906102c29190612260565b610a3a565b005b6102d1610ac2565b6040516102de91906129eb565b60405180910390f35b61030160048036038101906102fc919061210e565b610ac7565b005b61031d60048036038101906103189190611f68565b610c48565b60405161032a91906127ee565b60405180910390f35b61034d60048036038101906103489190612077565b610cdc565b005b61036960048036038101906103649190611f3b565b610d7e565b005b60008073ffffffffffffffffffffffffffffffffffffffff168373ffffffffffffffffffffffffffffffffffffffff1614156103dc576040517f08c379a00000000000000000000000000000000000000000000000000000000081526004016103d39061286b565b60405180910390fd5b60008083815260200190815260200160002060008473ffffffffffffffffffffffffffffffffffffffff1673ffffffffffffffffffffffffffffffffffffffff16815260200190815260200160002054905092915050565b60007fd9b67a26000000000000000000000000000000000000000000000000000000007bffffffffffffffffffffffffffffffffffffffffffffffffffffffff1916827bffffffffffffffffffffffffffffffffffffffffffffffffffffffff191614806104ff57507f0e89341c000000000000000000000000000000000000000000000000000000007bffffffffffffffffffffffffffffffffffffffffffffffffffffffff1916827bffffffffffffffffffffffffffffffffffffffffffffffffffffffff1916145b8061050f575061050e82610e76565b5b9050919050565b606061052182610ee0565b610560576040517f08c379a00000000000000000000000000000000000000000000000000000000081526004016105579061290b565b60405180910390fd5b610606600260076000858152602001908152602001600020805461058390612cab565b80601f01602080910402602001604051908101604052809291908181526020018280546105af90612cab565b80156105fc5780601f106105d1576101008083540402835291602001916105fc565b820191906000526020600020905b8154815290600101906020018083116105df57829003601f168201915b5050505050610f4c565b9050919050565b610615610f78565b73ffffffffffffffffffffffffffffffffffffffff168573ffffffffffffffffffffffffffffffffffffffff16148061065b575061065a85610655610f78565b610c48565b5b61069a576040517f08c379a0000000000000000000000000000000000000000000000000000000008152600401610691906128eb565b60405180910390fd5b6106a78585858585610f80565b5050505050565b600760205280600052604060002060009150905080546106cd90612cab565b80601f01602080910402602001604051908101604052809291908181526020018280546106f990612cab565b80156107465780601f1061071b57610100808354040283529160200191610746565b820191906000526020600020905b81548152906001019060200180831161072957829003601f168201915b505050505081565b60055481565b6060815183511461079a576040517f08c379a00000000000000000000000000000000000000000000000000000000081526004016107919061298b565b60405180910390fd5b6000835167ffffffffffffffff8111156107b7576107b6612de4565b5b6040519080825280602002602001820160405280156107e55781602001602082028036833780820191505090505b50905060005b84518110156108625761083285828151811061080a57610809612db5565b5b602002602001015185838151811061082557610824612db5565b5b602002602001015161036b565b82828151811061084557610844612db5565b5b6020026020010181815250508061085b90612d0e565b90506107eb565b508091505092915050565b610875610f78565b600660006108836004611294565b815260200190815260200160002060006101000a81548173ffffffffffffffffffffffffffffffffffffffff021916908373ffffffffffffffffffffffffffffffffffffffff16021790555080600760006108de6004611294565b815260200190815260200160002090805190602001906108ff929190611c13565b5061092c61090b610f78565b6109156004611294565b6001604051806020016040528060008152506112a2565b60016109386004611294565b6109429190612b9f565b6005819055506109526004611438565b50565b61095d610f78565b73ffffffffffffffffffffffffffffffffffffffff1661097b610a10565b73ffffffffffffffffffffffffffffffffffffffff16146109d1576040517f08c379a00000000000000000000000000000000000000000000000000000000081526004016109c89061294b565b60405180910390fd5b6109db600061144e565b565b60066020528060005260406000206000915054906101000a900473ffffffffffffffffffffffffffffffffffffffff1681565b6000600360009054906101000a900473ffffffffffffffffffffffffffffffffffffffff16905090565b610a42610f78565b73ffffffffffffffffffffffffffffffffffffffff16610a60610a10565b73ffffffffffffffffffffffffffffffffffffffff1614610ab6576040517f08c379a0000000000000000000000000000000000000000000000000000000008152600401610aad9061294b565b60405180910390fd5b610abf81611514565b50565b600081565b8173ffffffffffffffffffffffffffffffffffffffff16610ae6610f78565b73ffffffffffffffffffffffffffffffffffffffff161415610b3d576040517f08c379a0000000000000000000000000000000000000000000000000000000008152600401610b349061296b565b60405180910390fd5b8060016000610b4a610f78565b73ffffffffffffffffffffffffffffffffffffffff1673ffffffffffffffffffffffffffffffffffffffff16815260200190815260200160002060008473ffffffffffffffffffffffffffffffffffffffff1673ffffffffffffffffffffffffffffffffffffffff16815260200190815260200160002060006101000a81548160ff0219169083151502179055508173ffffffffffffffffffffffffffffffffffffffff16610bf7610f78565b73ffffffffffffffffffffffffffffffffffffffff167f17307eab39ab6107e8899845ad3d59bd9653f200f220920489ca2b5937696c3183604051610c3c91906127ee565b60405180910390a35050565b6000600160008473ffffffffffffffffffffffffffffffffffffffff1673ffffffffffffffffffffffffffffffffffffffff16815260200190815260200160002060008373ffffffffffffffffffffffffffffffffffffffff1673ffffffffffffffffffffffffffffffffffffffff16815260200190815260200160002060009054906101000a900460ff16905092915050565b610ce4610f78565b73ffffffffffffffffffffffffffffffffffffffff168573ffffffffffffffffffffffffffffffffffffffff161480610d2a5750610d2985610d24610f78565b610c48565b5b610d69576040517f08c379a0000000000000000000000000000000000000000000000000000000008152600401610d60906128ab565b60405180910390fd5b610d7785858560018561152e565b5050505050565b610d86610f78565b73ffffffffffffffffffffffffffffffffffffffff16610da4610a10565b73ffffffffffffffffffffffffffffffffffffffff1614610dfa576040517f08c379a0000000000000000000000000000000000000000000000000000000008152600401610df19061294b565b60405180910390fd5b600073ffffffffffffffffffffffffffffffffffffffff168173ffffffffffffffffffffffffffffffffffffffff161415610e6a576040517f08c379a0000000000000000000000000000000000000000000000000000000008152600401610e619061288b565b60405180910390fd5b610e738161144e565b50565b60007f01ffc9a7000000000000000000000000000000000000000000000000000000007bffffffffffffffffffffffffffffffffffffffffffffffffffffffff1916827bffffffffffffffffffffffffffffffffffffffffffffffffffffffff1916149050919050565b60008073ffffffffffffffffffffffffffffffffffffffff166006600084815260200190815260200160002060009054906101000a900473ffffffffffffffffffffffffffffffffffffffff1673ffffffffffffffffffffffffffffffffffffffff1614159050919050565b60608282604051602001610f61929190612694565b604051602081830303815290604052905092915050565b600033905090565b8151835114610fc4576040517f08c379a0000000000000000000000000000000000000000000000000000000008152600401610fbb906129ab565b60405180910390fd5b600073ffffffffffffffffffffffffffffffffffffffff168473ffffffffffffffffffffffffffffffffffffffff161415611034576040517f08c379a000000000000000000000000000000000000000000000000000000000815260040161102b906128cb565b60405180910390fd5b600061103e610f78565b905061104e8187878787876117b0565b60005b84518110156111ff57600085828151811061106f5761106e612db5565b5b60200260200101519050600085838151811061108e5761108d612db5565b5b60200260200101519050600080600084815260200190815260200160002060008b73ffffffffffffffffffffffffffffffffffffffff1673ffffffffffffffffffffffffffffffffffffffff1681526020019081526020016000205490508181101561112f576040517f08c379a00000000000000000000000000000000000000000000000000000000081526004016111269061292b565b60405180910390fd5b81810360008085815260200190815260200160002060008c73ffffffffffffffffffffffffffffffffffffffff1673ffffffffffffffffffffffffffffffffffffffff168152602001908152602001600020819055508160008085815260200190815260200160002060008b73ffffffffffffffffffffffffffffffffffffffff1673ffffffffffffffffffffffffffffffffffffffff16815260200190815260200160002060008282546111e49190612b9f565b92505081905550505050806111f890612d0e565b9050611051565b508473ffffffffffffffffffffffffffffffffffffffff168673ffffffffffffffffffffffffffffffffffffffff168273ffffffffffffffffffffffffffffffffffffffff167f4a39dc06d4c0dbc64b70af90fd698a233a518aa5d07e595d983b8c0526c8f7fb87876040516112769291906127b7565b60405180910390a461128c8187878787876117b8565b505050505050565b600081600001549050919050565b600073ffffffffffffffffffffffffffffffffffffffff168473ffffffffffffffffffffffffffffffffffffffff161415611312576040517f08c379a0000000000000000000000000000000000000000000000000000000008152600401611309906129cb565b60405180910390fd5b600061131c610f78565b905061133d8160008761132e8861199f565b6113378861199f565b876117b0565b8260008086815260200190815260200160002060008773ffffffffffffffffffffffffffffffffffffffff1673ffffffffffffffffffffffffffffffffffffffff168152602001908152602001600020600082825461139c9190612b9f565b925050819055508473ffffffffffffffffffffffffffffffffffffffff16600073ffffffffffffffffffffffffffffffffffffffff168273ffffffffffffffffffffffffffffffffffffffff167fc3d58168c5ae7397731d063d5bbf3d657854427343f4c083240f7aacaa2d0f62878760405161141a929190612a06565b60405180910390a461143181600087878787611a19565b5050505050565b6001816000016000828254019250508190555050565b6000600360009054906101000a900473ffffffffffffffffffffffffffffffffffffffff16905081600360006101000a81548173ffffffffffffffffffffffffffffffffffffffff021916908373ffffffffffffffffffffffffffffffffffffffff1602179055508173ffffffffffffffffffffffffffffffffffffffff168173ffffffffffffffffffffffffffffffffffffffff167f8be0079c531659141344cd1fd0a4f28419497f9722a3daafe3b4186f6b6457e060405160405180910390a35050565b806002908051906020019061152a929190611c13565b5050565b600073ffffffffffffffffffffffffffffffffffffffff168473ffffffffffffffffffffffffffffffffffffffff16141561159e576040517f08c379a0000000000000000000000000000000000000000000000000000000008152600401611595906128cb565b60405180910390fd5b60006115a8610f78565b90506115c88187876115b98861199f565b6115c28861199f565b876117b0565b600080600086815260200190815260200160002060008873ffffffffffffffffffffffffffffffffffffffff1673ffffffffffffffffffffffffffffffffffffffff1681526020019081526020016000205490508381101561165f576040517f08c379a00000000000000000000000000000000000000000000000000000000081526004016116569061292b565b60405180910390fd5b83810360008087815260200190815260200160002060008973ffffffffffffffffffffffffffffffffffffffff1673ffffffffffffffffffffffffffffffffffffffff168152602001908152602001600020819055508360008087815260200190815260200160002060008873ffffffffffffffffffffffffffffffffffffffff1673ffffffffffffffffffffffffffffffffffffffff16815260200190815260200160002060008282546117149190612b9f565b925050819055508573ffffffffffffffffffffffffffffffffffffffff168773ffffffffffffffffffffffffffffffffffffffff168373ffffffffffffffffffffffffffffffffffffffff167fc3d58168c5ae7397731d063d5bbf3d657854427343f4c083240f7aacaa2d0f628888604051611791929190612a06565b60405180910390a46117a7828888888888611a19565b50505050505050565b505050505050565b6117d78473ffffffffffffffffffffffffffffffffffffffff16611c00565b15611997578373ffffffffffffffffffffffffffffffffffffffff1663bc197c8187878686866040518663ffffffff1660e01b815260040161181d9594939291906126d3565b602060405180830381600087803b15801561183757600080fd5b505af192505050801561186857506040513d601f19601f820116820180604052508101906118659190612233565b60015b61190e57611874612e13565b806308c379a014156118d15750611889613298565b8061189457506118d3565b806040517f08c379a00000000000000000000000000000000000000000000000000000000081526004016118c89190612809565b60405180910390fd5b505b6040517f08c379a00000000000000000000000000000000000000000000000000000000081526004016119059061282b565b60405180910390fd5b63bc197c8160e01b7bffffffffffffffffffffffffffffffffffffffffffffffffffffffff1916817bffffffffffffffffffffffffffffffffffffffffffffffffffffffff191614611995576040517f08c379a000000000000000000000000000000000000000000000000000000000815260040161198c9061284b565b60405180910390fd5b505b505050505050565b60606000600167ffffffffffffffff8111156119be576119bd612de4565b5b6040519080825280602002602001820160405280156119ec5781602001602082028036833780820191505090505b5090508281600081518110611a0457611a03612db5565b5b60200260200101818152505080915050919050565b611a388473ffffffffffffffffffffffffffffffffffffffff16611c00565b15611bf8578373ffffffffffffffffffffffffffffffffffffffff1663f23a6e6187878686866040518663ffffffff1660e01b8152600401611a7e95949392919061273b565b602060405180830381600087803b158015611a9857600080fd5b505af1925050508015611ac957506040513d601f19601f82011682018060405250810190611ac69190612233565b60015b611b6f57611ad5612e13565b806308c379a01415611b325750611aea613298565b80611af55750611b34565b806040517f08c379a0000000000000000000000000000000000000000000000000000000008152600401611b299190612809565b60405180910390fd5b505b6040517f08c379a0000000000000000000000000000000000000000000000000000000008152600401611b669061282b565b60405180910390fd5b63f23a6e6160e01b7bffffffffffffffffffffffffffffffffffffffffffffffffffffffff1916817bffffffffffffffffffffffffffffffffffffffffffffffffffffffff191614611bf6576040517f08c379a0000000000000000000000000000000000000000000000000000000008152600401611bed9061284b565b60405180910390fd5b505b505050505050565b600080823b905060008111915050919050565b828054611c1f90612cab565b90600052602060002090601f016020900481019282611c415760008555611c88565b82601f10611c5a57805160ff1916838001178555611c88565b82800160010185558215611c88579182015b82811115611c87578251825591602001919060010190611c6c565b5b509050611c959190611c99565b5090565b5b80821115611cb2576000816000905550600101611c9a565b5090565b6000611cc9611cc484612a54565b612a2f565b90508083825260208201905082856020860282011115611cec57611ceb612e3a565b5b60005b85811015611d1c5781611d028882611e1a565b845260208401935060208301925050600181019050611cef565b5050509392505050565b6000611d39611d3484612a80565b612a2f565b90508083825260208201905082856020860282011115611d5c57611d5b612e3a565b5b60005b85811015611d8c5781611d728882611f26565b845260208401935060208301925050600181019050611d5f565b5050509392505050565b6000611da9611da484612aac565b612a2f565b905082815260208101848484011115611dc557611dc4612e3f565b5b611dd0848285612c69565b509392505050565b6000611deb611de684612add565b612a2f565b905082815260208101848484011115611e0757611e06612e3f565b5b611e12848285612c69565b509392505050565b600081359050611e298161332e565b92915050565b600082601f830112611e4457611e43612e35565b5b8135611e54848260208601611cb6565b91505092915050565b600082601f830112611e7257611e71612e35565b5b8135611e82848260208601611d26565b91505092915050565b600081359050611e9a81613345565b92915050565b600081359050611eaf8161335c565b92915050565b600081519050611ec48161335c565b92915050565b600082601f830112611edf57611ede612e35565b5b8135611eef848260208601611d96565b91505092915050565b600082601f830112611f0d57611f0c612e35565b5b8135611f1d848260208601611dd8565b91505092915050565b600081359050611f3581613373565b92915050565b600060208284031215611f5157611f50612e49565b5b6000611f5f84828501611e1a565b91505092915050565b60008060408385031215611f7f57611f7e612e49565b5b6000611f8d85828601611e1a565b9250506020611f9e85828601611e1a565b9150509250929050565b600080600080600060a08688031215611fc457611fc3612e49565b5b6000611fd288828901611e1a565b9550506020611fe388828901611e1a565b945050604086013567ffffffffffffffff81111561200457612003612e44565b5b61201088828901611e5d565b935050606086013567ffffffffffffffff81111561203157612030612e44565b5b61203d88828901611e5d565b925050608086013567ffffffffffffffff81111561205e5761205d612e44565b5b61206a88828901611eca565b9150509295509295909350565b600080600080600060a0868803121561209357612092612e49565b5b60006120a188828901611e1a565b95505060206120b288828901611e1a565b94505060406120c388828901611f26565b93505060606120d488828901611f26565b925050608086013567ffffffffffffffff8111156120f5576120f4612e44565b5b61210188828901611eca565b9150509295509295909350565b6000806040838503121561212557612124612e49565b5b600061213385828601611e1a565b925050602061214485828601611e8b565b9150509250929050565b6000806040838503121561216557612164612e49565b5b600061217385828601611e1a565b925050602061218485828601611f26565b9150509250929050565b600080604083850312156121a5576121a4612e49565b5b600083013567ffffffffffffffff8111156121c3576121c2612e44565b5b6121cf85828601611e2f565b925050602083013567ffffffffffffffff8111156121f0576121ef612e44565b5b6121fc85828601611e5d565b9150509250929050565b60006020828403121561221c5761221b612e49565b5b600061222a84828501611ea0565b91505092915050565b60006020828403121561224957612248612e49565b5b600061225784828501611eb5565b91505092915050565b60006020828403121561227657612275612e49565b5b600082013567ffffffffffffffff81111561229457612293612e44565b5b6122a084828501611ef8565b91505092915050565b6000602082840312156122bf576122be612e49565b5b60006122cd84828501611f26565b91505092915050565b60006122e28383612676565b60208301905092915050565b6122f781612bf5565b82525050565b600061230882612b33565b6123128185612b61565b935061231d83612b0e565b8060005b8381101561234e57815161233588826122d6565b975061234083612b54565b925050600181019050612321565b5085935050505092915050565b61236481612c07565b82525050565b600061237582612b3e565b61237f8185612b72565b935061238f818560208601612c78565b61239881612e4e565b840191505092915050565b60006123ae82612b49565b6123b88185612b83565b93506123c8818560208601612c78565b6123d181612e4e565b840191505092915050565b60006123e782612b49565b6123f18185612b94565b9350612401818560208601612c78565b80840191505092915050565b6000815461241a81612cab565b6124248186612b94565b9450600182166000811461243f576001811461245057612483565b60ff19831686528186019350612483565b61245985612b1e565b60005b8381101561247b5781548189015260018201915060208101905061245c565b838801955050505b50505092915050565b6000612499603483612b83565b91506124a482612e6c565b604082019050919050565b60006124bc602883612b83565b91506124c782612ebb565b604082019050919050565b60006124df602b83612b83565b91506124ea82612f0a565b604082019050919050565b6000612502602683612b83565b915061250d82612f59565b604082019050919050565b6000612525602983612b83565b915061253082612fa8565b604082019050919050565b6000612548602583612b83565b915061255382612ff7565b604082019050919050565b600061256b603283612b83565b915061257682613046565b604082019050919050565b600061258e602283612b83565b915061259982613095565b604082019050919050565b60006125b1602a83612b83565b91506125bc826130e4565b604082019050919050565b60006125d4602083612b83565b91506125df82613133565b602082019050919050565b60006125f7602983612b83565b91506126028261315c565b604082019050919050565b600061261a602983612b83565b9150612625826131ab565b604082019050919050565b600061263d602883612b83565b9150612648826131fa565b604082019050919050565b6000612660602183612b83565b915061266b82613249565b604082019050919050565b61267f81612c5f565b82525050565b61268e81612c5f565b82525050565b60006126a0828561240d565b91506126ac82846123dc565b91508190509392505050565b60006020820190506126cd60008301846122ee565b92915050565b600060a0820190506126e860008301886122ee565b6126f560208301876122ee565b818103604083015261270781866122fd565b9050818103606083015261271b81856122fd565b9050818103608083015261272f818461236a565b90509695505050505050565b600060a08201905061275060008301886122ee565b61275d60208301876122ee565b61276a6040830186612685565b6127776060830185612685565b8181036080830152612789818461236a565b90509695505050505050565b600060208201905081810360008301526127af81846122fd565b905092915050565b600060408201905081810360008301526127d181856122fd565b905081810360208301526127e581846122fd565b90509392505050565b6000602082019050612803600083018461235b565b92915050565b6000602082019050818103600083015261282381846123a3565b905092915050565b600060208201905081810360008301526128448161248c565b9050919050565b60006020820190508181036000830152612864816124af565b9050919050565b60006020820190508181036000830152612884816124d2565b9050919050565b600060208201905081810360008301526128a4816124f5565b9050919050565b600060208201905081810360008301526128c481612518565b9050919050565b600060208201905081810360008301526128e48161253b565b9050919050565b600060208201905081810360008301526129048161255e565b9050919050565b6000602082019050818103600083015261292481612581565b9050919050565b60006020820190508181036000830152612944816125a4565b9050919050565b60006020820190508181036000830152612964816125c7565b9050919050565b60006020820190508181036000830152612984816125ea565b9050919050565b600060208201905081810360008301526129a48161260d565b9050919050565b600060208201905081810360008301526129c481612630565b9050919050565b600060208201905081810360008301526129e481612653565b9050919050565b6000602082019050612a006000830184612685565b92915050565b6000604082019050612a1b6000830185612685565b612a286020830184612685565b9392505050565b6000612a39612a4a565b9050612a458282612cdd565b919050565b6000604051905090565b600067ffffffffffffffff821115612a6f57612a6e612de4565b5b602082029050602081019050919050565b600067ffffffffffffffff821115612a9b57612a9a612de4565b5b602082029050602081019050919050565b600067ffffffffffffffff821115612ac757612ac6612de4565b5b612ad082612e4e565b9050602081019050919050565b600067ffffffffffffffff821115612af857612af7612de4565b5b612b0182612e4e565b9050602081019050919050565b6000819050602082019050919050565b60008190508160005260206000209050919050565b600081519050919050565b600081519050919050565b600081519050919050565b6000602082019050919050565b600082825260208201905092915050565b600082825260208201905092915050565b600082825260208201905092915050565b600081905092915050565b6000612baa82612c5f565b9150612bb583612c5f565b9250827fffffffffffffffffffffffffffffffffffffffffffffffffffffffffffffffff03821115612bea57612be9612d57565b5b828201905092915050565b6000612c0082612c3f565b9050919050565b60008115159050919050565b60007fffffffff0000000000000000000000000000000000000000000000000000000082169050919050565b600073ffffffffffffffffffffffffffffffffffffffff82169050919050565b6000819050919050565b82818337600083830152505050565b60005b83811015612c96578082015181840152602081019050612c7b565b83811115612ca5576000848401525b50505050565b60006002820490506001821680612cc357607f821691505b60208210811415612cd757612cd6612d86565b5b50919050565b612ce682612e4e565b810181811067ffffffffffffffff82111715612d0557612d04612de4565b5b80604052505050565b6000612d1982612c5f565b91507fffffffffffffffffffffffffffffffffffffffffffffffffffffffffffffffff821415612d4c57612d4b612d57565b5b600182019050919050565b7f4e487b7100000000000000000000000000000000000000000000000000000000600052601160045260246000fd5b7f4e487b7100000000000000000000000000000000000000000000000000000000600052602260045260246000fd5b7f4e487b7100000000000000000000000000000000000000000000000000000000600052603260045260246000fd5b7f4e487b7100000000000000000000000000000000000000000000000000000000600052604160045260246000fd5b600060033d1115612e325760046000803e612e2f600051612e5f565b90505b90565b600080fd5b600080fd5b600080fd5b600080fd5b600080fd5b6000601f19601f8301169050919050565b60008160e01c9050919050565b7f455243313135353a207472616e7366657220746f206e6f6e204552433131353560008201527f526563656976657220696d706c656d656e746572000000000000000000000000602082015250565b7f455243313135353a204552433131353552656365697665722072656a6563746560008201527f6420746f6b656e73000000000000000000000000000000000000000000000000602082015250565b7f455243313135353a2062616c616e636520717565727920666f7220746865207a60008201527f65726f2061646472657373000000000000000000000000000000000000000000602082015250565b7f4f776e61626c653a206e6577206f776e657220697320746865207a65726f206160008201527f6464726573730000000000000000000000000000000000000000000000000000602082015250565b7f455243313135353a2063616c6c6572206973206e6f74206f776e6572206e6f7260008201527f20617070726f7665640000000000000000000000000000000000000000000000602082015250565b7f455243313135353a207472616e7366657220746f20746865207a65726f20616460008201527f6472657373000000000000000000000000000000000000000000000000000000602082015250565b7f455243313135353a207472616e736665722063616c6c6572206973206e6f742060008201527f6f776e6572206e6f7220617070726f7665640000000000000000000000000000602082015250565b7f53637261746368436f6c6c6563746976653a204e4f4e4558495354454e545f4160008201527f5254000000000000000000000000000000000000000000000000000000000000602082015250565b7f455243313135353a20696e73756666696369656e742062616c616e636520666f60008201527f72207472616e7366657200000000000000000000000000000000000000000000602082015250565b7f4f776e61626c653a2063616c6c6572206973206e6f7420746865206f776e6572600082015250565b7f455243313135353a2073657474696e6720617070726f76616c2073746174757360008201527f20666f722073656c660000000000000000000000000000000000000000000000602082015250565b7f455243313135353a206163636f756e747320616e6420696473206c656e67746860008201527f206d69736d617463680000000000000000000000000000000000000000000000602082015250565b7f455243313135353a2069647320616e6420616d6f756e7473206c656e6774682060008201527f6d69736d61746368000000000000000000000000000000000000000000000000602082015250565b7f455243313135353a206d696e7420746f20746865207a65726f2061646472657360008201527f7300000000000000000000000000000000000000000000000000000000000000602082015250565b600060443d10156132a85761332b565b6132b0612a4a565b60043d036004823e80513d602482011167ffffffffffffffff821117156132d857505061332b565b808201805167ffffffffffffffff8111156132f6575050505061332b565b80602083010160043d03850181111561331357505050505061332b565b61332282602001850186612cdd565b82955050505050505b90565b61333781612bf5565b811461334257600080fd5b50565b61334e81612c07565b811461335957600080fd5b50565b61336581612c13565b811461337057600080fd5b50565b61337c81612c5f565b811461338757600080fd5b5056fea2646970667358221220a0be38144e58fbde3393754bd370a1d41b74fb7ccebab013b1127a3006930a1464736f6c63430008070033",
  "immutableReferences": {},
  "source": "// SPDX-License-Identifier: MIT\r\n\r\npragma solidity >=0.8.0 <0.9.0;\r\n\r\nimport \"@openzeppelin/contracts/token/ERC1155/ERC1155.sol\";\r\nimport \"@openzeppelin/contracts/utils/Counters.sol\"; \r\nimport \"@openzeppelin/contracts/access/Ownable.sol\";\r\n\r\n\r\ncontract ScratchCollective is ERC1155, Ownable {\r\n    using Counters for Counters.Counter;\r\n\r\n    Counters.Counter internal _tokenIdTracker;\r\n\r\n    uint256 public constant ICHIBAN = 0;\r\n    uint256 public artSupply = 0;\r\n    mapping (uint256 => address) public original_creator;\r\n    mapping (uint256 => string) public ipfs_meta;\r\n\r\n    constructor() ERC1155(\"https://ipfs.io/ipfs/\") { }\r\n\r\n    // for now we'll only allow minting of NFT (x1 unique)\r\n    function addNewArt(string memory _cid) public {\r\n        original_creator[_tokenIdTracker.current()] = _msgSender();\r\n        ipfs_meta[_tokenIdTracker.current()] = _cid;\r\n        _mint(_msgSender(), _tokenIdTracker.current(), 1, \"\");\r\n        artSupply = _tokenIdTracker.current() + 1;\r\n        _tokenIdTracker.increment();\r\n    }\r\n\r\n    // URI function to return nft-specific IPFS uri\r\n    function uri(uint256 _id) public view virtual override returns (string memory) {\r\n        require(_exists(_id), \"ScratchCollective: NONEXISTENT_ART\");\r\n        return strConcat(_uri, ipfs_meta[_id]);\r\n    }\r\n\r\n    // update baseURI (in case something changes, maybe different ipfs gateway)\r\n    function updateBaseURI(string memory _newUri) onlyOwner external {\r\n        _setURI(_newUri);\r\n    }\r\n\r\n    function strConcat(string storage _a, string memory _b) internal pure returns(string memory) {\r\n        return string(abi.encodePacked(_a, _b));\r\n    }\r\n\r\n    // changed to allow transfer of only (1) as this is an NFT\r\n    function safeTransferFrom(\r\n    address from,\r\n    address to,\r\n    uint256 id,\r\n    uint256 amount,\r\n    bytes memory data\r\n    ) public override {\r\n        require(\r\n            from == _msgSender() || isApprovedForAll(from, _msgSender()),\r\n            \"ERC1155: caller is not owner nor approved\"\r\n        );\r\n        _safeTransferFrom(from, to, id, 1, data);\r\n    }\r\n\r\n    function _exists(\r\n    uint256 _id\r\n  ) internal view returns (bool) {\r\n    return original_creator[_id] != address(0);\r\n  }\r\n}\r\n",
  "sourcePath": "C:/Users/tobia/Desktop/scratchapp/scratchcollective/contracts/ScratchCollective.sol",
  "compiler": {
    "name": "solc",
    "version": "0.8.7+commit.e28d00a7.Emscripten.clang"
  },
  "schemaVersion": "3.4.1",
  "updatedAt": "2021-09-07T21:02:31.687Z",
  "devdoc": {
    "kind": "dev",
    "methods": {
      "balanceOf(address,uint256)": {
        "details": "See {IERC1155-balanceOf}. Requirements: - `account` cannot be the zero address."
      },
      "balanceOfBatch(address[],uint256[])": {
        "details": "See {IERC1155-balanceOfBatch}. Requirements: - `accounts` and `ids` must have the same length."
      },
      "isApprovedForAll(address,address)": {
        "details": "See {IERC1155-isApprovedForAll}."
      },
      "owner()": {
        "details": "Returns the address of the current owner."
      },
      "renounceOwnership()": {
        "details": "Leaves the contract without owner. It will not be possible to call `onlyOwner` functions anymore. Can only be called by the current owner. NOTE: Renouncing ownership will leave the contract without an owner, thereby removing any functionality that is only available to the owner."
      },
      "safeBatchTransferFrom(address,address,uint256[],uint256[],bytes)": {
        "details": "See {IERC1155-safeBatchTransferFrom}."
      },
      "safeTransferFrom(address,address,uint256,uint256,bytes)": {
        "details": "See {IERC1155-safeTransferFrom}."
      },
      "setApprovalForAll(address,bool)": {
        "details": "See {IERC1155-setApprovalForAll}."
      },
      "supportsInterface(bytes4)": {
        "details": "See {IERC165-supportsInterface}."
      },
      "transferOwnership(address)": {
        "details": "Transfers ownership of the contract to a new account (`newOwner`). Can only be called by the current owner."
      }
    },
    "version": 1
  },
  "userdoc": {
    "kind": "user",
    "methods": {},
    "version": 1
  }
}